{
  "contractName": "InnoCoin",
  "abi": [
    {
      "anonymous": false,
      "inputs": [
        {
          "indexed": true,
          "internalType": "address",
          "name": "_owner",
          "type": "address"
        },
        {
          "indexed": true,
          "internalType": "address",
          "name": "_spender",
          "type": "address"
        },
        {
          "indexed": false,
          "internalType": "uint256",
          "name": "value",
          "type": "uint256"
        }
      ],
      "name": "Approval",
      "type": "event"
    },
    {
      "anonymous": false,
      "inputs": [
        {
          "indexed": true,
          "internalType": "uint256",
          "name": "uid",
          "type": "uint256"
        }
      ],
      "name": "OrderClosed",
      "type": "event"
    },
    {
      "anonymous": false,
      "inputs": [
        {
          "indexed": true,
          "internalType": "address",
          "name": "from",
          "type": "address"
        },
        {
          "indexed": true,
          "internalType": "address",
          "name": "to",
          "type": "address"
        },
        {
          "indexed": false,
          "internalType": "uint256",
          "name": "tokens",
          "type": "uint256"
        }
      ],
      "name": "Transfer",
      "type": "event"
    },
    {
      "constant": true,
      "inputs": [
        {
          "internalType": "uint256",
          "name": "",
          "type": "uint256"
        }
      ],
      "name": "asks",
      "outputs": [
        {
          "internalType": "uint256",
          "name": "uid",
          "type": "uint256"
        },
        {
          "internalType": "uint256",
          "name": "created_at",
          "type": "uint256"
        },
        {
          "internalType": "uint256",
          "name": "price",
          "type": "uint256"
        },
        {
          "internalType": "uint256",
          "name": "quantity",
          "type": "uint256"
        },
        {
          "internalType": "enum InnoCoin.OrderFlags",
          "name": "flags",
          "type": "uint8"
        },
        {
          "internalType": "uint256",
          "name": "good_till",
          "type": "uint256"
        },
        {
          "internalType": "address payable",
          "name": "owner",
          "type": "address"
        }
      ],
      "payable": false,
      "stateMutability": "view",
      "type": "function"
    },
    {
      "constant": true,
      "inputs": [
        {
          "internalType": "uint256",
          "name": "",
          "type": "uint256"
        }
      ],
      "name": "bids",
      "outputs": [
        {
          "internalType": "uint256",
          "name": "uid",
          "type": "uint256"
        },
        {
          "internalType": "uint256",
          "name": "created_at",
          "type": "uint256"
        },
        {
          "internalType": "uint256",
          "name": "price",
          "type": "uint256"
        },
        {
          "internalType": "uint256",
          "name": "quantity",
          "type": "uint256"
        },
        {
          "internalType": "enum InnoCoin.OrderFlags",
          "name": "flags",
          "type": "uint8"
        },
        {
          "internalType": "uint256",
          "name": "good_till",
          "type": "uint256"
        },
        {
          "internalType": "address payable",
          "name": "owner",
          "type": "address"
        }
      ],
      "payable": false,
      "stateMutability": "view",
      "type": "function"
    },
    {
      "constant": true,
      "inputs": [
        {
          "internalType": "uint256",
          "name": "",
          "type": "uint256"
        }
      ],
      "name": "closed_asks",
      "outputs": [
        {
          "internalType": "uint256",
          "name": "uid",
          "type": "uint256"
        },
        {
          "internalType": "uint256",
          "name": "created_at",
          "type": "uint256"
        },
        {
          "internalType": "uint256",
          "name": "price",
          "type": "uint256"
        },
        {
          "internalType": "uint256",
          "name": "quantity",
          "type": "uint256"
        },
        {
          "internalType": "enum InnoCoin.OrderFlags",
          "name": "flags",
          "type": "uint8"
        },
        {
          "internalType": "uint256",
          "name": "good_till",
          "type": "uint256"
        },
        {
          "internalType": "address payable",
          "name": "owner",
          "type": "address"
        }
      ],
      "payable": false,
      "stateMutability": "view",
      "type": "function"
    },
    {
      "constant": true,
      "inputs": [
        {
          "internalType": "uint256",
          "name": "",
          "type": "uint256"
        }
      ],
      "name": "closed_bids",
      "outputs": [
        {
          "internalType": "uint256",
          "name": "uid",
          "type": "uint256"
        },
        {
          "internalType": "uint256",
          "name": "created_at",
          "type": "uint256"
        },
        {
          "internalType": "uint256",
          "name": "price",
          "type": "uint256"
        },
        {
          "internalType": "uint256",
          "name": "quantity",
          "type": "uint256"
        },
        {
          "internalType": "enum InnoCoin.OrderFlags",
          "name": "flags",
          "type": "uint8"
        },
        {
          "internalType": "uint256",
          "name": "good_till",
          "type": "uint256"
        },
        {
          "internalType": "address payable",
          "name": "owner",
          "type": "address"
        }
      ],
      "payable": false,
      "stateMutability": "view",
      "type": "function"
    },
    {
      "constant": true,
      "inputs": [],
      "name": "decimals",
      "outputs": [
        {
          "internalType": "uint8",
          "name": "",
          "type": "uint8"
        }
      ],
      "payable": false,
      "stateMutability": "view",
      "type": "function"
    },
    {
      "constant": true,
      "inputs": [],
      "name": "name",
      "outputs": [
        {
          "internalType": "string",
          "name": "",
          "type": "string"
        }
      ],
      "payable": false,
      "stateMutability": "view",
      "type": "function"
    },
    {
      "constant": true,
      "inputs": [],
      "name": "symbol",
      "outputs": [
        {
          "internalType": "string",
          "name": "",
          "type": "string"
        }
      ],
      "payable": false,
      "stateMutability": "view",
      "type": "function"
    },
    {
      "constant": true,
      "inputs": [],
      "name": "totalSupply",
      "outputs": [
        {
          "internalType": "uint256",
          "name": "",
          "type": "uint256"
        }
      ],
      "payable": false,
      "stateMutability": "view",
      "type": "function"
    },
    {
      "constant": false,
      "inputs": [],
      "name": "tap",
      "outputs": [],
      "payable": false,
      "stateMutability": "nonpayable",
      "type": "function"
    },
    {
      "constant": true,
      "inputs": [
        {
          "internalType": "address",
          "name": "_owner",
          "type": "address"
        }
      ],
      "name": "balanceOf",
      "outputs": [
        {
          "internalType": "uint256",
          "name": "balance",
          "type": "uint256"
        }
      ],
      "payable": false,
      "stateMutability": "view",
      "type": "function"
    },
    {
      "constant": false,
      "inputs": [
        {
          "internalType": "address",
          "name": "_to",
          "type": "address"
        },
        {
          "internalType": "uint256",
          "name": "_value",
          "type": "uint256"
        }
      ],
      "name": "transfer",
      "outputs": [
        {
          "internalType": "bool",
          "name": "success",
          "type": "bool"
        }
      ],
      "payable": false,
      "stateMutability": "nonpayable",
      "type": "function"
    },
    {
      "constant": false,
      "inputs": [
        {
          "internalType": "address",
          "name": "_from",
          "type": "address"
        },
        {
          "internalType": "address",
          "name": "_to",
          "type": "address"
        },
        {
          "internalType": "uint256",
          "name": "_value",
          "type": "uint256"
        }
      ],
      "name": "transferFrom",
      "outputs": [
        {
          "internalType": "bool",
          "name": "success",
          "type": "bool"
        }
      ],
      "payable": false,
      "stateMutability": "nonpayable",
      "type": "function"
    },
    {
      "constant": false,
      "inputs": [
        {
          "internalType": "address",
          "name": "_spender",
          "type": "address"
        },
        {
          "internalType": "uint256",
          "name": "_value",
          "type": "uint256"
        }
      ],
      "name": "approve",
      "outputs": [
        {
          "internalType": "bool",
          "name": "success",
          "type": "bool"
        }
      ],
      "payable": false,
      "stateMutability": "nonpayable",
      "type": "function"
    },
    {
      "constant": true,
      "inputs": [
        {
          "internalType": "address",
          "name": "_owner",
          "type": "address"
        },
        {
          "internalType": "address",
          "name": "_spender",
          "type": "address"
        }
      ],
      "name": "allowance",
      "outputs": [
        {
          "internalType": "uint256",
          "name": "remaining",
          "type": "uint256"
        }
      ],
      "payable": false,
      "stateMutability": "view",
      "type": "function"
    },
    {
      "constant": false,
      "inputs": [
        {
          "internalType": "enum InnoCoin.OrderSide",
          "name": "_side",
          "type": "uint8"
        },
        {
          "internalType": "uint256",
          "name": "_price",
          "type": "uint256"
        },
        {
          "internalType": "uint256",
          "name": "_quantity",
          "type": "uint256"
        },
        {
          "internalType": "enum InnoCoin.OrderFlags",
          "name": "_flags",
          "type": "uint8"
        },
        {
          "internalType": "uint256",
          "name": "_good_till",
          "type": "uint256"
        }
      ],
      "name": "limitOrder",
      "outputs": [
        {
          "internalType": "uint256",
          "name": "order_uid",
          "type": "uint256"
        }
      ],
      "payable": true,
      "stateMutability": "payable",
      "type": "function"
    },
    {
      "constant": false,
      "inputs": [
        {
          "internalType": "enum InnoCoin.OrderSide",
          "name": "_side",
          "type": "uint8"
        },
        {
          "components": [
            {
              "internalType": "uint256",
              "name": "uid",
              "type": "uint256"
            },
            {
              "internalType": "uint256",
              "name": "created_at",
              "type": "uint256"
            },
            {
              "internalType": "uint256",
              "name": "price",
              "type": "uint256"
            },
            {
              "internalType": "uint256",
              "name": "quantity",
              "type": "uint256"
            },
            {
              "internalType": "enum InnoCoin.OrderFlags",
              "name": "flags",
              "type": "uint8"
            },
            {
              "internalType": "uint256",
              "name": "good_till",
              "type": "uint256"
            },
            {
              "internalType": "address payable",
              "name": "owner",
              "type": "address"
            }
          ],
          "internalType": "struct InnoCoin.Order",
          "name": "order",
          "type": "tuple"
        }
      ],
      "name": "tryCover",
      "outputs": [
        {
          "internalType": "uint256[]",
          "name": "",
          "type": "uint256[]"
        },
        {
          "internalType": "uint256[]",
          "name": "",
          "type": "uint256[]"
        },
        {
          "internalType": "bool",
          "name": "",
          "type": "bool"
        }
      ],
      "payable": false,
      "stateMutability": "nonpayable",
      "type": "function"
    },
    {
      "constant": false,
      "inputs": [
        {
          "internalType": "uint256[]",
          "name": "remove_asks",
          "type": "uint256[]"
        },
        {
          "internalType": "uint256[]",
          "name": "remove_bids",
          "type": "uint256[]"
        }
      ],
      "name": "filterAsksAndBids",
      "outputs": [],
      "payable": false,
      "stateMutability": "nonpayable",
      "type": "function"
    }
  ],
  "bytecode": "0x60806040526040518060400160405280600881526020017f496e6e6f436f696e0000000000000000000000000000000000000000000000008152506000908051906020019062000051929190620000dc565b506040518060400160405280600381526020017f4943430000000000000000000000000000000000000000000000000000000000815250600190805190602001906200009f929190620000dc565b506008600260006101000a81548160ff021916908360ff160217905550620f42406003556001600655348015620000d557600080fd5b506200018b565b828054600181600116156101000203166002900490600052602060002090601f016020900481019282601f106200011f57805160ff191683800117855562000150565b8280016001018555821562000150579182015b828111156200014f57825182559160200191906001019062000132565b5b5090506200015f919062000163565b5090565b6200018891905b80821115620001845760008160009055506001016200016a565b5090565b90565b612d66806200019b6000396000f3fe6080604052600436106100fe5760003560e01c806370a0823111610095578063a9059cbb11610064578063a9059cbb14610388578063ab51955d146103c5578063dd62ed3e14610408578063e7958f2a14610445578063fd22103114610484576100fe565b806370a08231146102c7578063748da0fd14610304578063832e84aa1461032d57806395d89b411461035d576100fe565b806323b872dd116100d157806323b872dd146101d9578063313ce567146102165780634423c5f1146102415780635fc2ad1e14610284576100fe565b806306fdde0314610103578063095ea7b31461012e5780630b0c14931461016b57806318160ddd146101ae575b600080fd5b34801561010f57600080fd5b5061011861049b565b60405161012591906129a7565b60405180910390f35b34801561013a57600080fd5b50610155600480360361015091908101906123ac565b610539565b6040516101629190612962565b60405180910390f35b34801561017757600080fd5b50610192600480360361018d9190810190612587565b61062b565b6040516101a59796959493929190612a64565b60405180910390f35b3480156101ba57600080fd5b506101c36106a7565b6040516101d09190612a49565b60405180910390f35b3480156101e557600080fd5b5061020060048036036101fb919081019061235d565b6106ad565b60405161020d9190612962565b60405180910390f35b34801561022257600080fd5b5061022b61089d565b6040516102389190612ad3565b60405180910390f35b34801561024d57600080fd5b5061026860048036036102639190810190612587565b6108b0565b60405161027b9796959493929190612a64565b60405180910390f35b34801561029057600080fd5b506102ab60048036036102a69190810190612587565b61092c565b6040516102be9796959493929190612a64565b60405180910390f35b3480156102d357600080fd5b506102ee60048036036102e991908101906122f8565b6109a8565b6040516102fb9190612a49565b60405180910390f35b34801561031057600080fd5b5061032b600480360361032691908101906123e8565b6109f1565b005b61034760048036036103429190810190612510565b610d5f565b6040516103549190612a49565b60405180910390f35b34801561036957600080fd5b50610372611092565b60405161037f91906129a7565b60405180910390f35b34801561039457600080fd5b506103af60048036036103aa91908101906123ac565b611130565b6040516103bc9190612962565b60405180910390f35b3480156103d157600080fd5b506103ec60048036036103e79190810190612587565b6112bd565b6040516103ff9796959493929190612a64565b60405180910390f35b34801561041457600080fd5b5061042f600480360361042a9190810190612321565b611339565b60405161043c9190612a49565b60405180910390f35b34801561045157600080fd5b5061046c600480360361046791908101906124d3565b6113c0565b60405161047b9392919061291d565b60405180910390f35b34801561049057600080fd5b50610499611f4b565b005b60008054600181600116156101000203166002900480601f0160208091040260200160405190810160405280929190818152602001828054600181600116156101000203166002900480156105315780601f1061050657610100808354040283529160200191610531565b820191906000526020600020905b81548152906001019060200180831161051457829003601f168201915b505050505081565b600081600560003373ffffffffffffffffffffffffffffffffffffffff1673ffffffffffffffffffffffffffffffffffffffff16815260200190815260200160002060008573ffffffffffffffffffffffffffffffffffffffff1673ffffffffffffffffffffffffffffffffffffffff168152602001908152602001600020819055508273ffffffffffffffffffffffffffffffffffffffff163373ffffffffffffffffffffffffffffffffffffffff167f8c5be1e5ebec7d5bd14f71427d1e84f3dd0314c0f7b2291e5b200ac8c7c3b925846040516106199190612a49565b60405180910390a36001905092915050565b6007818154811061063857fe5b90600052602060002090600702016000915090508060000154908060010154908060020154908060030154908060040160009054906101000a900460ff16908060050154908060060160009054906101000a900473ffffffffffffffffffffffffffffffffffffffff16905087565b60035481565b6000600560008573ffffffffffffffffffffffffffffffffffffffff1673ffffffffffffffffffffffffffffffffffffffff16815260200190815260200160002060003373ffffffffffffffffffffffffffffffffffffffff1673ffffffffffffffffffffffffffffffffffffffff16815260200190815260200160002054821061076d576040517f08c379a0000000000000000000000000000000000000000000000000000000008152600401610764906129c9565b60405180910390fd5b6001600560008673ffffffffffffffffffffffffffffffffffffffff1673ffffffffffffffffffffffffffffffffffffffff16815260200190815260200160002060003373ffffffffffffffffffffffffffffffffffffffff1673ffffffffffffffffffffffffffffffffffffffff1681526020019081526020016000206000828254039250508190555081600460008673ffffffffffffffffffffffffffffffffffffffff1673ffffffffffffffffffffffffffffffffffffffff1681526020019081526020016000206000828254039250508190555081600460008573ffffffffffffffffffffffffffffffffffffffff1673ffffffffffffffffffffffffffffffffffffffff16815260200190815260200160002060008282540192505081905550600190509392505050565b600260009054906101000a900460ff1681565b600881815481106108bd57fe5b90600052602060002090600702016000915090508060000154908060010154908060020154908060030154908060040160009054906101000a900460ff16908060050154908060060160009054906101000a900473ffffffffffffffffffffffffffffffffffffffff16905087565b6009818154811061093957fe5b90600052602060002090600702016000915090508060000154908060010154908060020154908060030154908060040160009054906101000a900460ff16908060050154908060060160009054906101000a900473ffffffffffffffffffffffffffffffffffffffff16905087565b6000600460008373ffffffffffffffffffffffffffffffffffffffff1673ffffffffffffffffffffffffffffffffffffffff168152602001908152602001600020549050919050565b60008090505b8251811015610ba5576000838281518110610a0e57fe5b60200260200101519050600080905060008090505b600780549050811015610b7f578260078281548110610a3e57fe5b9060005260206000209060070201600001541415610a5f5760019150610b72565b8115610b715760078181548110610a7257fe5b906000526020600020906007020160076001830381548110610a9057fe5b9060005260206000209060070201600082015481600001556001820154816001015560028201548160020155600382015481600301556004820160009054906101000a900460ff168160040160006101000a81548160ff02191690836002811115610af757fe5b0217905550600582015481600501556006820160009054906101000a900473ffffffffffffffffffffffffffffffffffffffff168160060160006101000a81548173ffffffffffffffffffffffffffffffffffffffff021916908373ffffffffffffffffffffffffffffffffffffffff1602179055509050505b5b8080600101915050610a23565b506007805480919060019003610b959190611f9d565b50505080806001019150506109f7565b5060008090505b8151811015610d5a576000828281518110610bc357fe5b60200260200101519050600080905060008090505b600880549050811015610d34578260088281548110610bf357fe5b9060005260206000209060070201600001541415610c145760019150610d27565b8115610d265760088181548110610c2757fe5b906000526020600020906007020160086001830381548110610c4557fe5b9060005260206000209060070201600082015481600001556001820154816001015560028201548160020155600382015481600301556004820160009054906101000a900460ff168160040160006101000a81548160ff02191690836002811115610cac57fe5b0217905550600582015481600501556006820160009054906101000a900473ffffffffffffffffffffffffffffffffffffffff168160060160006101000a81548173ffffffffffffffffffffffffffffffffffffffff021916908373ffffffffffffffffffffffffffffffffffffffff1602179055509050505b5b8080600101915050610bd8565b506008805480919060019003610d4a9190611f9d565b5050508080600101915050610bac565b505050565b6000600180811115610d6d57fe5b866001811115610d7957fe5b1415610ea057600460003373ffffffffffffffffffffffffffffffffffffffff1673ffffffffffffffffffffffffffffffffffffffff16815260200190815260200160002054841015610e01576040517f08c379a0000000000000000000000000000000000000000000000000000000008152600401610df890612a29565b60405180910390fd5b83600460003373ffffffffffffffffffffffffffffffffffffffff1673ffffffffffffffffffffffffffffffffffffffff1681526020019081526020016000206000828254039250508190555083600460003073ffffffffffffffffffffffffffffffffffffffff1673ffffffffffffffffffffffffffffffffffffffff16815260200190815260200160002060008282540192505081905550610f05565b60006001811115610ead57fe5b866001811115610eb957fe5b1415610f04573484860214610f03576040517f08c379a0000000000000000000000000000000000000000000000000000000008152600401610efa90612a09565b60405180910390fd5b5b5b610f0d611fcf565b6040518060e0016040528060066000815480929190600101919050558152602001428152602001878152602001868152602001856002811115610f4c57fe5b81526020018481526020013373ffffffffffffffffffffffffffffffffffffffff16815250905060608060003073ffffffffffffffffffffffffffffffffffffffff1663e7958f2a8b866040518363ffffffff1660e01b8152600401610fb392919061297d565b600060405180830381600087803b158015610fcd57600080fd5b505af1158015610fe1573d6000803e3d6000fd5b505050506040513d6000823e3d601f19601f8201168201806040525061100a9190810190612454565b9250925092503073ffffffffffffffffffffffffffffffffffffffff1663748da0fd83856040518363ffffffff1660e01b815260040161104b9291906128e6565b600060405180830381600087803b15801561106557600080fd5b505af1158015611079573d6000803e3d6000fd5b5050505060016006540394505050505095945050505050565b60018054600181600116156101000203166002900480601f0160208091040260200160405190810160405280929190818152602001828054600181600116156101000203166002900480156111285780601f106110fd57610100808354040283529160200191611128565b820191906000526020600020905b81548152906001019060200180831161110b57829003601f168201915b505050505081565b600081600460003373ffffffffffffffffffffffffffffffffffffffff1673ffffffffffffffffffffffffffffffffffffffff1681526020019081526020016000205410156111b4576040517f08c379a00000000000000000000000000000000000000000000000000000000081526004016111ab906129e9565b60405180910390fd5b81600460003373ffffffffffffffffffffffffffffffffffffffff1673ffffffffffffffffffffffffffffffffffffffff1681526020019081526020016000206000828254039250508190555081600460008573ffffffffffffffffffffffffffffffffffffffff1673ffffffffffffffffffffffffffffffffffffffff168152602001908152602001600020600082825401925050819055508273ffffffffffffffffffffffffffffffffffffffff163373ffffffffffffffffffffffffffffffffffffffff167fddf252ad1be2c89b69c2b068fc378daa952ba7f163c4a11628f55a4df523b3ef846040516112ab9190612a49565b60405180910390a36001905092915050565b600a81815481106112ca57fe5b90600052602060002090600702016000915090508060000154908060010154908060020154908060030154908060040160009054906101000a900460ff16908060050154908060060160009054906101000a900473ffffffffffffffffffffffffffffffffffffffff16905087565b6000600560008473ffffffffffffffffffffffffffffffffffffffff1673ffffffffffffffffffffffffffffffffffffffff16815260200190815260200160002060008373ffffffffffffffffffffffffffffffffffffffff1673ffffffffffffffffffffffffffffffffffffffff16815260200190815260200160002054905092915050565b6060806000806000905060008090506060600080905060606113e0611fcf565b6113e8611fcf565b60606001808111156113f657fe5b8d600181111561140257fe5b141561151c576008805480602002602001604051908101604052809291908181526020016000905b8282101561151157838290600052602060002090600702016040518060e0016040529081600082015481526020016001820154815260200160028201548152602001600382015481526020016004820160009054906101000a900460ff16600281111561149357fe5b600281111561149e57fe5b8152602001600582015481526020016006820160009054906101000a900473ffffffffffffffffffffffffffffffffffffffff1673ffffffffffffffffffffffffffffffffffffffff1673ffffffffffffffffffffffffffffffffffffffff16815250508152602001906001019061142a565b50505050905061164c565b6000600181111561152957fe5b8d600181111561153557fe5b141561164b576007805480602002602001604051908101604052809291908181526020016000905b8282101561164457838290600052602060002090600702016040518060e0016040529081600082015481526020016001820154815260200160028201548152602001600382015481526020016004820160009054906101000a900460ff1660028111156115c657fe5b60028111156115d157fe5b8152602001600582015481526020016006820160009054906101000a900473ffffffffffffffffffffffffffffffffffffffff1673ffffffffffffffffffffffffffffffffffffffff1673ffffffffffffffffffffffffffffffffffffffff16815250508152602001906001019061155d565b5050505090505b5b60008090505b8151811015611f325760018081111561166757fe5b8e600181111561167357fe5b1415611697578c935081818151811061168857fe5b602002602001015192506116d1565b600060018111156116a457fe5b8e60018111156116b057fe5b14156116d0578c92508181815181106116c557fe5b602002602001015193505b5b8260400151846040015110611f2557826060015184606001511415611a42578260600151600460003073ffffffffffffffffffffffffffffffffffffffff1673ffffffffffffffffffffffffffffffffffffffff168152602001908152602001600020600082825403925050819055508260600151600460008560c0015173ffffffffffffffffffffffffffffffffffffffff1673ffffffffffffffffffffffffffffffffffffffff168152602001908152602001600020600082825401925050819055508360c0015173ffffffffffffffffffffffffffffffffffffffff166108fc84606001518560400151029081150290604051600060405180830381858888f193505050501580156117ea573d6000803e3d6000fd5b50600984908060018154018082558091505090600182039060005260206000209060070201600090919290919091506000820151816000015560208201518160010155604082015181600201556060820151816003015560808201518160040160006101000a81548160ff0219169083600281111561186557fe5b021790555060a0820151816005015560c08201518160060160006101000a81548173ffffffffffffffffffffffffffffffffffffffff021916908373ffffffffffffffffffffffffffffffffffffffff160217905550505050600a83908060018154018082558091505090600182039060005260206000209060070201600090919290919091506000820151816000015560208201518160010155604082015181600201556060820151816003015560808201518160040160006101000a81548160ff0219169083600281111561193857fe5b021790555060a0820151816005015560c08201518160060160006101000a81548173ffffffffffffffffffffffffffffffffffffffff021916908373ffffffffffffffffffffffffffffffffffffffff16021790555050505083600001517fa7bec7790a90eefc51c752a274c61fa256e58e17fbfeb1340045117ada7f2f4460405160405180910390a282600001517fa7bec7790a90eefc51c752a274c61fa256e58e17fbfeb1340045117ada7f2f4460405160405180910390a2600198508360000151858780600101985081518110611a0e57fe5b60200260200101818152505082600001518789806001019a5081518110611a3157fe5b602002602001018181525050611f32565b826060015184606001511115611cb5578260600151600460003073ffffffffffffffffffffffffffffffffffffffff1673ffffffffffffffffffffffffffffffffffffffff168152602001908152602001600020600082825403925050819055508260600151600460008560c0015173ffffffffffffffffffffffffffffffffffffffff1673ffffffffffffffffffffffffffffffffffffffff168152602001908152602001600020600082825401925050819055508360c0015173ffffffffffffffffffffffffffffffffffffffff166108fc84606001518560400151029081150290604051600060405180830381858888f19350505050158015611b4c573d6000803e3d6000fd5b50600a83908060018154018082558091505090600182039060005260206000209060070201600090919290919091506000820151816000015560208201518160010155604082015181600201556060820151816003015560808201518160040160006101000a81548160ff02191690836002811115611bc757fe5b021790555060a0820151816005015560c08201518160060160006101000a81548173ffffffffffffffffffffffffffffffffffffffff021916908373ffffffffffffffffffffffffffffffffffffffff160217905550505050826060015184606001818151039150818152505082600001517fa7bec7790a90eefc51c752a274c61fa256e58e17fbfeb1340045117ada7f2f4460405160405180910390a282600001518789806001019a5081518110611c7c57fe5b60200260200101818152505060006001811115611c9557fe5b8e6001811115611ca157fe5b1415611cb05760019850611f32565b611f24565b826060015184606001511015611f23578360600151600460003073ffffffffffffffffffffffffffffffffffffffff1673ffffffffffffffffffffffffffffffffffffffff168152602001908152602001600020600082825403925050819055508360600151600460008560c0015173ffffffffffffffffffffffffffffffffffffffff1673ffffffffffffffffffffffffffffffffffffffff168152602001908152602001600020600082825401925050819055508360c0015173ffffffffffffffffffffffffffffffffffffffff166108fc85606001518560400151029081150290604051600060405180830381858888f19350505050158015611dbf573d6000803e3d6000fd5b50600984908060018154018082558091505090600182039060005260206000209060070201600090919290919091506000820151816000015560208201518160010155604082015181600201556060820151816003015560808201518160040160006101000a81548160ff02191690836002811115611e3a57fe5b021790555060a0820151816005015560c08201518160060160006101000a81548173ffffffffffffffffffffffffffffffffffffffff021916908373ffffffffffffffffffffffffffffffffffffffff160217905550505050836060015183606001818151039150818152505083600001517fa7bec7790a90eefc51c752a274c61fa256e58e17fbfeb1340045117ada7f2f4460405160405180910390a28360000151858780600101985081518110611eef57fe5b602002602001018181525050600180811115611f0757fe5b8e6001811115611f1357fe5b1415611f225760019850611f32565b5b5b5b8080600101915050611652565b508386899a509a509a5050505050505050509250925092565b620186a0600460003373ffffffffffffffffffffffffffffffffffffffff1673ffffffffffffffffffffffffffffffffffffffff16815260200190815260200160002060008282540192505081905550565b815481835581811115611fca57600702816007028360005260206000209182019101611fc9919061202d565b5b505050565b6040518060e00160405280600081526020016000815260200160008152602001600081526020016000600281111561200357fe5b815260200160008152602001600073ffffffffffffffffffffffffffffffffffffffff1681525090565b6120ac91905b808211156120a8576000808201600090556001820160009055600282016000905560038201600090556004820160006101000a81549060ff021916905560058201600090556006820160006101000a81549073ffffffffffffffffffffffffffffffffffffffff021916905550600701612033565b5090565b90565b6000813590506120be81612ca7565b92915050565b6000813590506120d381612cbe565b92915050565b600082601f8301126120ea57600080fd5b81356120fd6120f882612b1b565b612aee565b9150818183526020840193506020810190508385602084028201111561212257600080fd5b60005b83811015612152578161213888826122ce565b845260208401935060208301925050600181019050612125565b5050505092915050565b600082601f83011261216d57600080fd5b815161218061217b82612b1b565b612aee565b915081818352602084019350602081019050838560208402820111156121a557600080fd5b60005b838110156121d557816121bb88826122e3565b8452602084019350602083019250506001810190506121a8565b5050505092915050565b6000815190506121ee81612cd5565b92915050565b60008135905061220381612cec565b92915050565b60008135905061221881612cfc565b92915050565b600060e0828403121561223057600080fd5b61223a60e0612aee565b9050600061224a848285016122ce565b600083015250602061225e848285016122ce565b6020830152506040612272848285016122ce565b6040830152506060612286848285016122ce565b606083015250608061229a848285016121f4565b60808301525060a06122ae848285016122ce565b60a08301525060c06122c2848285016120c4565b60c08301525092915050565b6000813590506122dd81612d0c565b92915050565b6000815190506122f281612d0c565b92915050565b60006020828403121561230a57600080fd5b6000612318848285016120af565b91505092915050565b6000806040838503121561233457600080fd5b6000612342858286016120af565b9250506020612353858286016120af565b9150509250929050565b60008060006060848603121561237257600080fd5b6000612380868287016120af565b9350506020612391868287016120af565b92505060406123a2868287016122ce565b9150509250925092565b600080604083850312156123bf57600080fd5b60006123cd858286016120af565b92505060206123de858286016122ce565b9150509250929050565b600080604083850312156123fb57600080fd5b600083013567ffffffffffffffff81111561241557600080fd5b612421858286016120d9565b925050602083013567ffffffffffffffff81111561243e57600080fd5b61244a858286016120d9565b9150509250929050565b60008060006060848603121561246957600080fd5b600084015167ffffffffffffffff81111561248357600080fd5b61248f8682870161215c565b935050602084015167ffffffffffffffff8111156124ac57600080fd5b6124b88682870161215c565b92505060406124c9868287016121df565b9150509250925092565b60008061010083850312156124e757600080fd5b60006124f585828601612209565b92505060206125068582860161221e565b9150509250929050565b600080600080600060a0868803121561252857600080fd5b600061253688828901612209565b9550506020612547888289016122ce565b9450506040612558888289016122ce565b9350506060612569888289016121f4565b925050608061257a888289016122ce565b9150509295509295909350565b60006020828403121561259957600080fd5b60006125a7848285016122ce565b91505092915050565b60006125bc83836128b9565b60208301905092915050565b6125d181612baa565b82525050565b6125e081612baa565b82525050565b60006125f182612b53565b6125fb8185612b76565b935061260683612b43565b8060005b8381101561263757815161261e88826125b0565b975061262983612b69565b92505060018101905061260a565b5085935050505092915050565b61264d81612bbc565b82525050565b61265c81612c25565b82525050565b61266b81612c25565b82525050565b61267a81612c37565b82525050565b600061268b82612b5e565b6126958185612b87565b93506126a5818560208601612c49565b6126ae81612c7c565b840191505092915050565b60006126c6602a83612b87565b91507f4d75737420626520617574686f72697a656420746f207370656e64207468617460008301527f206d756368206c6d616f000000000000000000000000000000000000000000006020830152604082019050919050565b600061272c602283612b87565b91507f4d757374206861766520656e6f7567682066756e647320746f207472616e736660008301527f65720000000000000000000000000000000000000000000000000000000000006020830152604082019050919050565b6000612792601483612b87565b91507f4d7573742070617920666f7220746865206269640000000000000000000000006000830152602082019050919050565b60006127d2602483612b87565b91507f4d757374206861766520656e6f75676820746f6b656e7320666f72207468697360008301527f2061736b000000000000000000000000000000000000000000000000000000006020830152604082019050919050565b60e08201600082015161284160008501826128b9565b50602082015161285460208501826128b9565b50604082015161286760408501826128b9565b50606082015161287a60608501826128b9565b50608082015161288d6080850182612653565b5060a08201516128a060a08501826128b9565b5060c08201516128b360c08501826125c8565b50505050565b6128c281612c0e565b82525050565b6128d181612c0e565b82525050565b6128e081612c18565b82525050565b6000604082019050818103600083015261290081856125e6565b9050818103602083015261291481846125e6565b90509392505050565b6000606082019050818103600083015261293781866125e6565b9050818103602083015261294b81856125e6565b905061295a6040830184612644565b949350505050565b60006020820190506129776000830184612644565b92915050565b6000610100820190506129936000830185612671565b6129a0602083018461282b565b9392505050565b600060208201905081810360008301526129c18184612680565b905092915050565b600060208201905081810360008301526129e2816126b9565b9050919050565b60006020820190508181036000830152612a028161271f565b9050919050565b60006020820190508181036000830152612a2281612785565b9050919050565b60006020820190508181036000830152612a42816127c5565b9050919050565b6000602082019050612a5e60008301846128c8565b92915050565b600060e082019050612a79600083018a6128c8565b612a8660208301896128c8565b612a9360408301886128c8565b612aa060608301876128c8565b612aad6080830186612662565b612aba60a08301856128c8565b612ac760c08301846125d7565b98975050505050505050565b6000602082019050612ae860008301846128d7565b92915050565b6000604051905081810181811067ffffffffffffffff82111715612b1157600080fd5b8060405250919050565b600067ffffffffffffffff821115612b3257600080fd5b602082029050602081019050919050565b6000819050602082019050919050565b600081519050919050565b600081519050919050565b6000602082019050919050565b600082825260208201905092915050565b600082825260208201905092915050565b6000612ba382612bee565b9050919050565b6000612bb582612bee565b9050919050565b60008115159050919050565b6000819050612bd682612c8d565b919050565b6000819050612be982612c9a565b919050565b600073ffffffffffffffffffffffffffffffffffffffff82169050919050565b6000819050919050565b600060ff82169050919050565b6000612c3082612bc8565b9050919050565b6000612c4282612bdb565b9050919050565b60005b83811015612c67578082015181840152602081019050612c4c565b83811115612c76576000848401525b50505050565b6000601f19601f8301169050919050565b60038110612c9757fe5b50565b60028110612ca457fe5b50565b612cb081612b98565b8114612cbb57600080fd5b50565b612cc781612baa565b8114612cd257600080fd5b50565b612cde81612bbc565b8114612ce957600080fd5b50565b60038110612cf957600080fd5b50565b60028110612d0957600080fd5b50565b612d1581612c0e565b8114612d2057600080fd5b5056fea365627a7a723158209c6859d061e2c37a8761f22577b0e2b93999d5ead4bd75ad2ad805f2e07729b46c6578706572696d656e74616cf564736f6c63430005100040",
  "source": "pragma solidity ^0.5.16;\npragma experimental ABIEncoderV2;\n\ncontract InnoCoin {\n    // The coin instrumentation part\n\n    event Transfer(address indexed from, address indexed to, uint256 tokens);\n    event Approval(address indexed _owner, address indexed _spender, uint256 value);\n\n    string public name = \"InnoCoin\";\n    string public symbol = \"ICC\";\n    uint8 public decimals = 8;\n    uint256 public totalSupply = 1000000;\n\n    mapping (address => uint256) balances;\n    mapping (address => mapping(address => uint256)) allowances;\n\n    // TODO: remove befoere rearwfa\n    function tap() public {\n        balances[msg.sender] += 100000;\n    }\n\n    function balanceOf(address _owner) public view returns (uint256 balance) {\n        return balances[_owner];\n    }\n\n    function transfer(address _to, uint256 _value) public returns (bool success) {\n        require(balances[msg.sender] >= _value, \"Must have enough funds to transfer\");\n\n        balances[msg.sender] -= _value;\n        balances[_to] += _value;\n\n        emit Transfer(msg.sender, _to, _value);\n\n        return true;\n    }\n\n    function transferFrom(address _from, address _to, uint256 _value) public returns (bool success) {\n        require(_value < allowances[_from][msg.sender], \"Must be authorized to spend that much lmao\");\n\n        allowances[_from][msg.sender] -= 1;\n        balances[_from] -= _value;\n        balances[_to] += _value;\n\n        return true;\n    }\n\n    function approve(address _spender, uint256 _value) public returns (bool success) {\n        allowances[msg.sender][_spender] = _value;\n        emit Approval(msg.sender, _spender, _value);\n        return true;\n    }\n\n    function allowance(address _owner, address _spender) public view returns (uint256 remaining) {\n        return allowances[_owner][_spender];\n    }\n\n    // The DEX part\n\n    enum OrderSide { Bid, Ask }\n    enum OrderFlags { ImmediateOrCancel, TimeInForce, GoodTillCancel }\n\n    struct Order {\n        uint256 uid;\n\n        uint256 created_at;\n        uint256 price;\n        uint256 quantity;\n\n        OrderFlags flags;\n        uint256 good_till; // only if flags == TimeInForce, 0 otherwise\n\n        address payable owner;\n    }\n\n    uint256 next_order = 1;\n    Order[] public asks;\n    Order[] public bids;\n    Order[] public closed_asks;\n    Order[] public closed_bids;\n\n    event OrderClosed(uint256 indexed uid);\n\n    function limitOrder(OrderSide _side, uint256 _price, uint256 _quantity, OrderFlags _flags, uint256 _good_till) external payable returns (uint256 order_uid) {\n        if (_side == OrderSide.Ask) {\n            require(_quantity >= balances[msg.sender], \"Must have enough tokens for this ask\");\n            balances[msg.sender] -= _quantity;\n            balances[address(this)] += _quantity;\n        } else if (_side == OrderSide.Bid) {\n            require(_price * _quantity == msg.value, \"Must pay for the bid\");\n        }\n\n        Order memory order = Order({\n            uid: next_order++,\n            created_at: now,\n            price: _price,\n            quantity: _quantity,\n            flags: _flags,\n            // TODO: implement good till shit\n            good_till: _good_till,\n            owner: msg.sender\n        });\n        \n        (uint256[] memory remove_bids, uint256[] memory remove_asks, bool covered) = this.tryCover(_side, order);\n\n        this.filterAsksAndBids(remove_asks, remove_bids);\n\n        return next_order - 1;\n    }\n\n    function tryCover(OrderSide _side, Order memory order) public returns (uint256[] memory, uint256[] memory, bool) {\n        bool covered = false;\n        uint256 next_remove_bid = 0;\n        uint256[] memory remove_bids;\n        uint256 next_remove_ask = 0;\n        uint256[] memory remove_asks;\n\n        Order memory ask;\n        Order memory bid;\n        Order[] memory others;\n\n        if (_side == OrderSide.Ask) {\n            others = bids;\n        } else if (_side == OrderSide.Bid) {\n            others = asks;\n        }\n\n        for (uint256 i = 0; i < others.length; i++) {\n            if (_side == OrderSide.Ask) {\n                ask = order;\n                bid = others[i];\n            } else if (_side == OrderSide.Bid) {\n                bid = order;\n                ask = others[i];\n            }\n            if (ask.price >= bid.price) {\n                if (ask.quantity == bid.quantity) {\n                    balances[address(this)] -= bid.quantity;\n                    balances[bid.owner] += bid.quantity;\n                    ask.owner.transfer(bid.price * bid.quantity);\n\n                    closed_asks.push(ask);\n                    closed_bids.push(bid);\n\n                    emit OrderClosed(ask.uid);\n                    emit OrderClosed(bid.uid);\n\n                    covered = true;\n\n                    remove_asks[next_remove_ask++] = ask.uid;\n                    remove_bids[next_remove_bid++] = bid.uid;\n                    break;\n                } else if (ask.quantity > bid.quantity) {\n                    balances[address(this)] -= bid.quantity;\n                    balances[bid.owner] += bid.quantity;\n                    ask.owner.transfer(bid.price * bid.quantity);\n\n                    closed_bids.push(bid);\n\n                    ask.quantity -= bid.quantity;\n\n                    emit OrderClosed(bid.uid);\n\n                    remove_bids[next_remove_bid++] = bid.uid;\n\n                    if (_side == OrderSide.Bid) {\n                        covered = true;\n                        break;\n                    }\n                } else if (ask.quantity < bid.quantity) {\n                    balances[address(this)] -= ask.quantity;\n                    balances[bid.owner] += ask.quantity;\n                    ask.owner.transfer(bid.price * ask.quantity);\n\n                    closed_asks.push(ask);\n\n                    bid.quantity -= ask.quantity;\n\n                    emit OrderClosed(ask.uid);\n\n                    remove_asks[next_remove_ask++] = ask.uid;\n\n                    if (_side == OrderSide.Ask) {\n                        covered = true;\n                        break;\n                    }\n                }\n            }\n        }\n\n        return (remove_asks, remove_bids, covered);\n    }\n\n    function filterAsksAndBids(uint256[] memory remove_asks, uint256[] memory remove_bids) public {\n        for (uint256 i = 0; i < remove_asks.length; i++) {\n            uint256 uid_to_remove = remove_asks[i];\n            bool shit = false;\n            for (uint256 j = 0; j < asks.length; j++) {\n                if (asks[j].uid == uid_to_remove) {\n                    shit = true;\n                } else if (shit) {\n                    asks[j - 1] = asks[j];\n                }\n            }\n            asks.length--;\n        }\n        for (uint256 i = 0; i < remove_bids.length; i++) {\n            uint256 uid_to_remove = remove_bids[i];\n            bool shit = false;\n            for (uint256 j = 0; j < bids.length; j++) {\n                if (bids[j].uid == uid_to_remove) {\n                    shit = true;\n                } else if (shit) {\n                    bids[j - 1] = bids[j];\n                }\n            }\n            bids.length--;\n        }\n    }\n}\n",
  "sourcePath": "/Users/ionagamed/archive_innopolis/bs4s/SCD/inno-dex/contract/contracts/InnoCoin.sol",
  "compiler": {
    "name": "solc",
    "version": "0.5.16+commit.9c3226ce.Emscripten.clang"
  },
  "schemaVersion": "3.3.4",
  "updatedAt": "2021-04-19T19:16:33.705Z",
  "devdoc": {
    "methods": {}
  },
  "userdoc": {
    "methods": {}
  }
}