{
  "contractName": "InnoCoin",
  "abi": [
    {
      "anonymous": false,
      "inputs": [
        {
          "indexed": true,
          "internalType": "address",
          "name": "_owner",
          "type": "address"
        },
        {
          "indexed": true,
          "internalType": "address",
          "name": "_spender",
          "type": "address"
        },
        {
          "indexed": false,
          "internalType": "uint256",
          "name": "value",
          "type": "uint256"
        }
      ],
      "name": "Approval",
      "type": "event"
    },
    {
      "anonymous": false,
      "inputs": [
        {
          "indexed": true,
          "internalType": "uint256",
          "name": "uid",
          "type": "uint256"
        }
      ],
      "name": "OrderClosed",
      "type": "event"
    },
    {
      "anonymous": false,
      "inputs": [
        {
          "indexed": true,
          "internalType": "address",
          "name": "from",
          "type": "address"
        },
        {
          "indexed": true,
          "internalType": "address",
          "name": "to",
          "type": "address"
        },
        {
          "indexed": false,
          "internalType": "uint256",
          "name": "tokens",
          "type": "uint256"
        }
      ],
      "name": "Transfer",
      "type": "event"
    },
    {
      "constant": true,
      "inputs": [
        {
          "internalType": "uint256",
          "name": "",
          "type": "uint256"
        }
      ],
      "name": "asks",
      "outputs": [
        {
          "internalType": "uint256",
          "name": "uid",
          "type": "uint256"
        },
        {
          "internalType": "uint256",
          "name": "created_at",
          "type": "uint256"
        },
        {
          "internalType": "uint256",
          "name": "price",
          "type": "uint256"
        },
        {
          "internalType": "uint256",
          "name": "quantity",
          "type": "uint256"
        },
        {
          "internalType": "enum InnoCoin.OrderFlags",
          "name": "flags",
          "type": "uint8"
        },
        {
          "internalType": "uint256",
          "name": "good_till",
          "type": "uint256"
        },
        {
          "internalType": "address payable",
          "name": "owner",
          "type": "address"
        }
      ],
      "payable": false,
      "stateMutability": "view",
      "type": "function"
    },
    {
      "constant": true,
      "inputs": [
        {
          "internalType": "uint256",
          "name": "",
          "type": "uint256"
        }
      ],
      "name": "bids",
      "outputs": [
        {
          "internalType": "uint256",
          "name": "uid",
          "type": "uint256"
        },
        {
          "internalType": "uint256",
          "name": "created_at",
          "type": "uint256"
        },
        {
          "internalType": "uint256",
          "name": "price",
          "type": "uint256"
        },
        {
          "internalType": "uint256",
          "name": "quantity",
          "type": "uint256"
        },
        {
          "internalType": "enum InnoCoin.OrderFlags",
          "name": "flags",
          "type": "uint8"
        },
        {
          "internalType": "uint256",
          "name": "good_till",
          "type": "uint256"
        },
        {
          "internalType": "address payable",
          "name": "owner",
          "type": "address"
        }
      ],
      "payable": false,
      "stateMutability": "view",
      "type": "function"
    },
    {
      "constant": true,
      "inputs": [
        {
          "internalType": "uint256",
          "name": "",
          "type": "uint256"
        }
      ],
      "name": "closed_asks",
      "outputs": [
        {
          "internalType": "uint256",
          "name": "uid",
          "type": "uint256"
        },
        {
          "internalType": "uint256",
          "name": "created_at",
          "type": "uint256"
        },
        {
          "internalType": "uint256",
          "name": "price",
          "type": "uint256"
        },
        {
          "internalType": "uint256",
          "name": "quantity",
          "type": "uint256"
        },
        {
          "internalType": "enum InnoCoin.OrderFlags",
          "name": "flags",
          "type": "uint8"
        },
        {
          "internalType": "uint256",
          "name": "good_till",
          "type": "uint256"
        },
        {
          "internalType": "address payable",
          "name": "owner",
          "type": "address"
        }
      ],
      "payable": false,
      "stateMutability": "view",
      "type": "function"
    },
    {
      "constant": true,
      "inputs": [
        {
          "internalType": "uint256",
          "name": "",
          "type": "uint256"
        }
      ],
      "name": "closed_bids",
      "outputs": [
        {
          "internalType": "uint256",
          "name": "uid",
          "type": "uint256"
        },
        {
          "internalType": "uint256",
          "name": "created_at",
          "type": "uint256"
        },
        {
          "internalType": "uint256",
          "name": "price",
          "type": "uint256"
        },
        {
          "internalType": "uint256",
          "name": "quantity",
          "type": "uint256"
        },
        {
          "internalType": "enum InnoCoin.OrderFlags",
          "name": "flags",
          "type": "uint8"
        },
        {
          "internalType": "uint256",
          "name": "good_till",
          "type": "uint256"
        },
        {
          "internalType": "address payable",
          "name": "owner",
          "type": "address"
        }
      ],
      "payable": false,
      "stateMutability": "view",
      "type": "function"
    },
    {
      "constant": true,
      "inputs": [],
      "name": "decimals",
      "outputs": [
        {
          "internalType": "uint8",
          "name": "",
          "type": "uint8"
        }
      ],
      "payable": false,
      "stateMutability": "view",
      "type": "function"
    },
    {
      "constant": true,
      "inputs": [],
      "name": "name",
      "outputs": [
        {
          "internalType": "string",
          "name": "",
          "type": "string"
        }
      ],
      "payable": false,
      "stateMutability": "view",
      "type": "function"
    },
    {
      "constant": true,
      "inputs": [],
      "name": "symbol",
      "outputs": [
        {
          "internalType": "string",
          "name": "",
          "type": "string"
        }
      ],
      "payable": false,
      "stateMutability": "view",
      "type": "function"
    },
    {
      "constant": true,
      "inputs": [],
      "name": "totalSupply",
      "outputs": [
        {
          "internalType": "uint256",
          "name": "",
          "type": "uint256"
        }
      ],
      "payable": false,
      "stateMutability": "view",
      "type": "function"
    },
    {
      "constant": false,
      "inputs": [],
      "name": "tap",
      "outputs": [],
      "payable": false,
      "stateMutability": "nonpayable",
      "type": "function"
    },
    {
      "constant": true,
      "inputs": [
        {
          "internalType": "address",
          "name": "_owner",
          "type": "address"
        }
      ],
      "name": "balanceOf",
      "outputs": [
        {
          "internalType": "uint256",
          "name": "balance",
          "type": "uint256"
        }
      ],
      "payable": false,
      "stateMutability": "view",
      "type": "function"
    },
    {
      "constant": false,
      "inputs": [
        {
          "internalType": "address",
          "name": "_to",
          "type": "address"
        },
        {
          "internalType": "uint256",
          "name": "_value",
          "type": "uint256"
        }
      ],
      "name": "transfer",
      "outputs": [
        {
          "internalType": "bool",
          "name": "success",
          "type": "bool"
        }
      ],
      "payable": false,
      "stateMutability": "nonpayable",
      "type": "function"
    },
    {
      "constant": false,
      "inputs": [
        {
          "internalType": "address",
          "name": "_from",
          "type": "address"
        },
        {
          "internalType": "address",
          "name": "_to",
          "type": "address"
        },
        {
          "internalType": "uint256",
          "name": "_value",
          "type": "uint256"
        }
      ],
      "name": "transferFrom",
      "outputs": [
        {
          "internalType": "bool",
          "name": "success",
          "type": "bool"
        }
      ],
      "payable": false,
      "stateMutability": "nonpayable",
      "type": "function"
    },
    {
      "constant": false,
      "inputs": [
        {
          "internalType": "address",
          "name": "_spender",
          "type": "address"
        },
        {
          "internalType": "uint256",
          "name": "_value",
          "type": "uint256"
        }
      ],
      "name": "approve",
      "outputs": [
        {
          "internalType": "bool",
          "name": "success",
          "type": "bool"
        }
      ],
      "payable": false,
      "stateMutability": "nonpayable",
      "type": "function"
    },
    {
      "constant": true,
      "inputs": [
        {
          "internalType": "address",
          "name": "_owner",
          "type": "address"
        },
        {
          "internalType": "address",
          "name": "_spender",
          "type": "address"
        }
      ],
      "name": "allowance",
      "outputs": [
        {
          "internalType": "uint256",
          "name": "remaining",
          "type": "uint256"
        }
      ],
      "payable": false,
      "stateMutability": "view",
      "type": "function"
    },
    {
      "constant": false,
      "inputs": [
        {
          "internalType": "enum InnoCoin.OrderSide",
          "name": "_side",
          "type": "uint8"
        },
        {
          "internalType": "uint256",
          "name": "_price",
          "type": "uint256"
        },
        {
          "internalType": "uint256",
          "name": "_quantity",
          "type": "uint256"
        },
        {
          "internalType": "enum InnoCoin.OrderFlags",
          "name": "_flags",
          "type": "uint8"
        },
        {
          "internalType": "uint256",
          "name": "_good_till",
          "type": "uint256"
        }
      ],
      "name": "limitOrder",
      "outputs": [
        {
          "internalType": "uint256",
          "name": "order_uid",
          "type": "uint256"
        }
      ],
      "payable": true,
      "stateMutability": "payable",
      "type": "function"
    },
    {
      "constant": false,
      "inputs": [
        {
          "internalType": "enum InnoCoin.OrderSide",
          "name": "_side",
          "type": "uint8"
        },
        {
          "components": [
            {
              "internalType": "uint256",
              "name": "uid",
              "type": "uint256"
            },
            {
              "internalType": "uint256",
              "name": "created_at",
              "type": "uint256"
            },
            {
              "internalType": "uint256",
              "name": "price",
              "type": "uint256"
            },
            {
              "internalType": "uint256",
              "name": "quantity",
              "type": "uint256"
            },
            {
              "internalType": "enum InnoCoin.OrderFlags",
              "name": "flags",
              "type": "uint8"
            },
            {
              "internalType": "uint256",
              "name": "good_till",
              "type": "uint256"
            },
            {
              "internalType": "address payable",
              "name": "owner",
              "type": "address"
            }
          ],
          "internalType": "struct InnoCoin.Order",
          "name": "order",
          "type": "tuple"
        }
      ],
      "name": "tryCover",
      "outputs": [
        {
          "internalType": "uint256[]",
          "name": "",
          "type": "uint256[]"
        },
        {
          "internalType": "uint256[]",
          "name": "",
          "type": "uint256[]"
        },
        {
          "internalType": "bool",
          "name": "",
          "type": "bool"
        }
      ],
      "payable": false,
      "stateMutability": "nonpayable",
      "type": "function"
    },
    {
      "constant": false,
      "inputs": [
        {
          "internalType": "uint256[]",
          "name": "remove_asks",
          "type": "uint256[]"
        },
        {
          "internalType": "uint256[]",
          "name": "remove_bids",
          "type": "uint256[]"
        }
      ],
      "name": "filterAsksAndBids",
      "outputs": [],
      "payable": false,
      "stateMutability": "nonpayable",
      "type": "function"
    }
  ],
  "bytecode": "0x60806040526040518060400160405280600881526020017f496e6e6f436f696e0000000000000000000000000000000000000000000000008152506000908051906020019062000051929190620000dc565b506040518060400160405280600381526020017f4943430000000000000000000000000000000000000000000000000000000000815250600190805190602001906200009f929190620000dc565b506008600260006101000a81548160ff021916908360ff160217905550620f42406003556001600655348015620000d557600080fd5b506200018b565b828054600181600116156101000203166002900490600052602060002090601f016020900481019282601f106200011f57805160ff191683800117855562000150565b8280016001018555821562000150579182015b828111156200014f57825182559160200191906001019062000132565b5b5090506200015f919062000163565b5090565b6200018891905b80821115620001845760008160009055506001016200016a565b5090565b90565b612f50806200019b6000396000f3fe6080604052600436106100fe5760003560e01c806370a0823111610095578063a9059cbb11610064578063a9059cbb14610388578063ab51955d146103c5578063dd62ed3e14610408578063e7958f2a14610445578063fd22103114610484576100fe565b806370a08231146102c7578063748da0fd14610304578063832e84aa1461032d57806395d89b411461035d576100fe565b806323b872dd116100d157806323b872dd146101d9578063313ce567146102165780634423c5f1146102415780635fc2ad1e14610284576100fe565b806306fdde0314610103578063095ea7b31461012e5780630b0c14931461016b57806318160ddd146101ae575b600080fd5b34801561010f57600080fd5b5061011861049b565b6040516101259190612b91565b60405180910390f35b34801561013a57600080fd5b5061015560048036036101509190810190612596565b610539565b6040516101629190612b4c565b60405180910390f35b34801561017757600080fd5b50610192600480360361018d9190810190612771565b61062b565b6040516101a59796959493929190612c4e565b60405180910390f35b3480156101ba57600080fd5b506101c36106a7565b6040516101d09190612c33565b60405180910390f35b3480156101e557600080fd5b5061020060048036036101fb9190810190612547565b6106ad565b60405161020d9190612b4c565b60405180910390f35b34801561022257600080fd5b5061022b61089d565b6040516102389190612cbd565b60405180910390f35b34801561024d57600080fd5b5061026860048036036102639190810190612771565b6108b0565b60405161027b9796959493929190612c4e565b60405180910390f35b34801561029057600080fd5b506102ab60048036036102a69190810190612771565b61092c565b6040516102be9796959493929190612c4e565b60405180910390f35b3480156102d357600080fd5b506102ee60048036036102e991908101906124e2565b6109a8565b6040516102fb9190612c33565b60405180910390f35b34801561031057600080fd5b5061032b600480360361032691908101906125d2565b6109f1565b005b610347600480360361034291908101906126fa565b610d5f565b6040516103549190612c33565b60405180910390f35b34801561036957600080fd5b5061037261127c565b60405161037f9190612b91565b60405180910390f35b34801561039457600080fd5b506103af60048036036103aa9190810190612596565b61131a565b6040516103bc9190612b4c565b60405180910390f35b3480156103d157600080fd5b506103ec60048036036103e79190810190612771565b6114a7565b6040516103ff9796959493929190612c4e565b60405180910390f35b34801561041457600080fd5b5061042f600480360361042a919081019061250b565b611523565b60405161043c9190612c33565b60405180910390f35b34801561045157600080fd5b5061046c600480360361046791908101906126bd565b6115aa565b60405161047b93929190612b07565b60405180910390f35b34801561049057600080fd5b50610499612135565b005b60008054600181600116156101000203166002900480601f0160208091040260200160405190810160405280929190818152602001828054600181600116156101000203166002900480156105315780601f1061050657610100808354040283529160200191610531565b820191906000526020600020905b81548152906001019060200180831161051457829003601f168201915b505050505081565b600081600560003373ffffffffffffffffffffffffffffffffffffffff1673ffffffffffffffffffffffffffffffffffffffff16815260200190815260200160002060008573ffffffffffffffffffffffffffffffffffffffff1673ffffffffffffffffffffffffffffffffffffffff168152602001908152602001600020819055508273ffffffffffffffffffffffffffffffffffffffff163373ffffffffffffffffffffffffffffffffffffffff167f8c5be1e5ebec7d5bd14f71427d1e84f3dd0314c0f7b2291e5b200ac8c7c3b925846040516106199190612c33565b60405180910390a36001905092915050565b6007818154811061063857fe5b90600052602060002090600702016000915090508060000154908060010154908060020154908060030154908060040160009054906101000a900460ff16908060050154908060060160009054906101000a900473ffffffffffffffffffffffffffffffffffffffff16905087565b60035481565b6000600560008573ffffffffffffffffffffffffffffffffffffffff1673ffffffffffffffffffffffffffffffffffffffff16815260200190815260200160002060003373ffffffffffffffffffffffffffffffffffffffff1673ffffffffffffffffffffffffffffffffffffffff16815260200190815260200160002054821061076d576040517f08c379a000000000000000000000000000000000000000000000000000000000815260040161076490612bb3565b60405180910390fd5b6001600560008673ffffffffffffffffffffffffffffffffffffffff1673ffffffffffffffffffffffffffffffffffffffff16815260200190815260200160002060003373ffffffffffffffffffffffffffffffffffffffff1673ffffffffffffffffffffffffffffffffffffffff1681526020019081526020016000206000828254039250508190555081600460008673ffffffffffffffffffffffffffffffffffffffff1673ffffffffffffffffffffffffffffffffffffffff1681526020019081526020016000206000828254039250508190555081600460008573ffffffffffffffffffffffffffffffffffffffff1673ffffffffffffffffffffffffffffffffffffffff16815260200190815260200160002060008282540192505081905550600190509392505050565b600260009054906101000a900460ff1681565b600881815481106108bd57fe5b90600052602060002090600702016000915090508060000154908060010154908060020154908060030154908060040160009054906101000a900460ff16908060050154908060060160009054906101000a900473ffffffffffffffffffffffffffffffffffffffff16905087565b6009818154811061093957fe5b90600052602060002090600702016000915090508060000154908060010154908060020154908060030154908060040160009054906101000a900460ff16908060050154908060060160009054906101000a900473ffffffffffffffffffffffffffffffffffffffff16905087565b6000600460008373ffffffffffffffffffffffffffffffffffffffff1673ffffffffffffffffffffffffffffffffffffffff168152602001908152602001600020549050919050565b60008090505b8251811015610ba5576000838281518110610a0e57fe5b60200260200101519050600080905060008090505b600780549050811015610b7f578260078281548110610a3e57fe5b9060005260206000209060070201600001541415610a5f5760019150610b72565b8115610b715760078181548110610a7257fe5b906000526020600020906007020160076001830381548110610a9057fe5b9060005260206000209060070201600082015481600001556001820154816001015560028201548160020155600382015481600301556004820160009054906101000a900460ff168160040160006101000a81548160ff02191690836002811115610af757fe5b0217905550600582015481600501556006820160009054906101000a900473ffffffffffffffffffffffffffffffffffffffff168160060160006101000a81548173ffffffffffffffffffffffffffffffffffffffff021916908373ffffffffffffffffffffffffffffffffffffffff1602179055509050505b5b8080600101915050610a23565b506007805480919060019003610b959190612187565b50505080806001019150506109f7565b5060008090505b8151811015610d5a576000828281518110610bc357fe5b60200260200101519050600080905060008090505b600880549050811015610d34578260088281548110610bf357fe5b9060005260206000209060070201600001541415610c145760019150610d27565b8115610d265760088181548110610c2757fe5b906000526020600020906007020160086001830381548110610c4557fe5b9060005260206000209060070201600082015481600001556001820154816001015560028201548160020155600382015481600301556004820160009054906101000a900460ff168160040160006101000a81548160ff02191690836002811115610cac57fe5b0217905550600582015481600501556006820160009054906101000a900473ffffffffffffffffffffffffffffffffffffffff168160060160006101000a81548173ffffffffffffffffffffffffffffffffffffffff021916908373ffffffffffffffffffffffffffffffffffffffff1602179055509050505b5b8080600101915050610bd8565b506008805480919060019003610d4a9190612187565b5050508080600101915050610bac565b505050565b6000600180811115610d6d57fe5b866001811115610d7957fe5b1415610ea057600460003373ffffffffffffffffffffffffffffffffffffffff1673ffffffffffffffffffffffffffffffffffffffff16815260200190815260200160002054841015610e01576040517f08c379a0000000000000000000000000000000000000000000000000000000008152600401610df890612c13565b60405180910390fd5b83600460003373ffffffffffffffffffffffffffffffffffffffff1673ffffffffffffffffffffffffffffffffffffffff1681526020019081526020016000206000828254039250508190555083600460003073ffffffffffffffffffffffffffffffffffffffff1673ffffffffffffffffffffffffffffffffffffffff16815260200190815260200160002060008282540192505081905550610f05565b60006001811115610ead57fe5b866001811115610eb957fe5b1415610f04573484860214610f03576040517f08c379a0000000000000000000000000000000000000000000000000000000008152600401610efa90612bf3565b60405180910390fd5b5b5b610f0d6121b9565b6040518060e0016040528060066000815480929190600101919050558152602001428152602001878152602001868152602001856002811115610f4c57fe5b81526020018481526020013373ffffffffffffffffffffffffffffffffffffffff168152509050600180811115610f7f57fe5b876001811115610f8b57fe5b141561106957600781908060018154018082558091505090600182039060005260206000209060070201600090919290919091506000820151816000015560208201518160010155604082015181600201556060820151816003015560808201518160040160006101000a81548160ff0219169083600281111561100b57fe5b021790555060a0820151816005015560c08201518160060160006101000a81548173ffffffffffffffffffffffffffffffffffffffff021916908373ffffffffffffffffffffffffffffffffffffffff16021790555050505061115d565b6000600181111561107657fe5b87600181111561108257fe5b141561115c57600881908060018154018082558091505090600182039060005260206000209060070201600090919290919091506000820151816000015560208201518160010155604082015181600201556060820151816003015560808201518160040160006101000a81548160ff0219169083600281111561110257fe5b021790555060a0820151816005015560c08201518160060160006101000a81548173ffffffffffffffffffffffffffffffffffffffff021916908373ffffffffffffffffffffffffffffffffffffffff1602179055505050505b5b60608060003073ffffffffffffffffffffffffffffffffffffffff1663e7958f2a8b866040518363ffffffff1660e01b815260040161119d929190612b67565b600060405180830381600087803b1580156111b757600080fd5b505af11580156111cb573d6000803e3d6000fd5b505050506040513d6000823e3d601f19601f820116820180604052506111f4919081019061263e565b9250925092503073ffffffffffffffffffffffffffffffffffffffff1663748da0fd83856040518363ffffffff1660e01b8152600401611235929190612ad0565b600060405180830381600087803b15801561124f57600080fd5b505af1158015611263573d6000803e3d6000fd5b5050505060016006540394505050505095945050505050565b60018054600181600116156101000203166002900480601f0160208091040260200160405190810160405280929190818152602001828054600181600116156101000203166002900480156113125780601f106112e757610100808354040283529160200191611312565b820191906000526020600020905b8154815290600101906020018083116112f557829003601f168201915b505050505081565b600081600460003373ffffffffffffffffffffffffffffffffffffffff1673ffffffffffffffffffffffffffffffffffffffff16815260200190815260200160002054101561139e576040517f08c379a000000000000000000000000000000000000000000000000000000000815260040161139590612bd3565b60405180910390fd5b81600460003373ffffffffffffffffffffffffffffffffffffffff1673ffffffffffffffffffffffffffffffffffffffff1681526020019081526020016000206000828254039250508190555081600460008573ffffffffffffffffffffffffffffffffffffffff1673ffffffffffffffffffffffffffffffffffffffff168152602001908152602001600020600082825401925050819055508273ffffffffffffffffffffffffffffffffffffffff163373ffffffffffffffffffffffffffffffffffffffff167fddf252ad1be2c89b69c2b068fc378daa952ba7f163c4a11628f55a4df523b3ef846040516114959190612c33565b60405180910390a36001905092915050565b600a81815481106114b457fe5b90600052602060002090600702016000915090508060000154908060010154908060020154908060030154908060040160009054906101000a900460ff16908060050154908060060160009054906101000a900473ffffffffffffffffffffffffffffffffffffffff16905087565b6000600560008473ffffffffffffffffffffffffffffffffffffffff1673ffffffffffffffffffffffffffffffffffffffff16815260200190815260200160002060008373ffffffffffffffffffffffffffffffffffffffff1673ffffffffffffffffffffffffffffffffffffffff16815260200190815260200160002054905092915050565b6060806000806000905060008090506060600080905060606115ca6121b9565b6115d26121b9565b60606001808111156115e057fe5b8d60018111156115ec57fe5b1415611706576008805480602002602001604051908101604052809291908181526020016000905b828210156116fb57838290600052602060002090600702016040518060e0016040529081600082015481526020016001820154815260200160028201548152602001600382015481526020016004820160009054906101000a900460ff16600281111561167d57fe5b600281111561168857fe5b8152602001600582015481526020016006820160009054906101000a900473ffffffffffffffffffffffffffffffffffffffff1673ffffffffffffffffffffffffffffffffffffffff1673ffffffffffffffffffffffffffffffffffffffff168152505081526020019060010190611614565b505050509050611836565b6000600181111561171357fe5b8d600181111561171f57fe5b1415611835576007805480602002602001604051908101604052809291908181526020016000905b8282101561182e57838290600052602060002090600702016040518060e0016040529081600082015481526020016001820154815260200160028201548152602001600382015481526020016004820160009054906101000a900460ff1660028111156117b057fe5b60028111156117bb57fe5b8152602001600582015481526020016006820160009054906101000a900473ffffffffffffffffffffffffffffffffffffffff1673ffffffffffffffffffffffffffffffffffffffff1673ffffffffffffffffffffffffffffffffffffffff168152505081526020019060010190611747565b5050505090505b5b60008090505b815181101561211c5760018081111561185157fe5b8e600181111561185d57fe5b1415611881578c935081818151811061187257fe5b602002602001015192506118bb565b6000600181111561188e57fe5b8e600181111561189a57fe5b14156118ba578c92508181815181106118af57fe5b602002602001015193505b5b826040015184604001511061210f57826060015184606001511415611c2c578260600151600460003073ffffffffffffffffffffffffffffffffffffffff1673ffffffffffffffffffffffffffffffffffffffff168152602001908152602001600020600082825403925050819055508260600151600460008560c0015173ffffffffffffffffffffffffffffffffffffffff1673ffffffffffffffffffffffffffffffffffffffff168152602001908152602001600020600082825401925050819055508360c0015173ffffffffffffffffffffffffffffffffffffffff166108fc84606001518560400151029081150290604051600060405180830381858888f193505050501580156119d4573d6000803e3d6000fd5b50600984908060018154018082558091505090600182039060005260206000209060070201600090919290919091506000820151816000015560208201518160010155604082015181600201556060820151816003015560808201518160040160006101000a81548160ff02191690836002811115611a4f57fe5b021790555060a0820151816005015560c08201518160060160006101000a81548173ffffffffffffffffffffffffffffffffffffffff021916908373ffffffffffffffffffffffffffffffffffffffff160217905550505050600a83908060018154018082558091505090600182039060005260206000209060070201600090919290919091506000820151816000015560208201518160010155604082015181600201556060820151816003015560808201518160040160006101000a81548160ff02191690836002811115611b2257fe5b021790555060a0820151816005015560c08201518160060160006101000a81548173ffffffffffffffffffffffffffffffffffffffff021916908373ffffffffffffffffffffffffffffffffffffffff16021790555050505083600001517fa7bec7790a90eefc51c752a274c61fa256e58e17fbfeb1340045117ada7f2f4460405160405180910390a282600001517fa7bec7790a90eefc51c752a274c61fa256e58e17fbfeb1340045117ada7f2f4460405160405180910390a2600198508360000151858780600101985081518110611bf857fe5b60200260200101818152505082600001518789806001019a5081518110611c1b57fe5b60200260200101818152505061211c565b826060015184606001511115611e9f578260600151600460003073ffffffffffffffffffffffffffffffffffffffff1673ffffffffffffffffffffffffffffffffffffffff168152602001908152602001600020600082825403925050819055508260600151600460008560c0015173ffffffffffffffffffffffffffffffffffffffff1673ffffffffffffffffffffffffffffffffffffffff168152602001908152602001600020600082825401925050819055508360c0015173ffffffffffffffffffffffffffffffffffffffff166108fc84606001518560400151029081150290604051600060405180830381858888f19350505050158015611d36573d6000803e3d6000fd5b50600a83908060018154018082558091505090600182039060005260206000209060070201600090919290919091506000820151816000015560208201518160010155604082015181600201556060820151816003015560808201518160040160006101000a81548160ff02191690836002811115611db157fe5b021790555060a0820151816005015560c08201518160060160006101000a81548173ffffffffffffffffffffffffffffffffffffffff021916908373ffffffffffffffffffffffffffffffffffffffff160217905550505050826060015184606001818151039150818152505082600001517fa7bec7790a90eefc51c752a274c61fa256e58e17fbfeb1340045117ada7f2f4460405160405180910390a282600001518789806001019a5081518110611e6657fe5b60200260200101818152505060006001811115611e7f57fe5b8e6001811115611e8b57fe5b1415611e9a576001985061211c565b61210e565b82606001518460600151101561210d578360600151600460003073ffffffffffffffffffffffffffffffffffffffff1673ffffffffffffffffffffffffffffffffffffffff168152602001908152602001600020600082825403925050819055508360600151600460008560c0015173ffffffffffffffffffffffffffffffffffffffff1673ffffffffffffffffffffffffffffffffffffffff168152602001908152602001600020600082825401925050819055508360c0015173ffffffffffffffffffffffffffffffffffffffff166108fc85606001518560400151029081150290604051600060405180830381858888f19350505050158015611fa9573d6000803e3d6000fd5b50600984908060018154018082558091505090600182039060005260206000209060070201600090919290919091506000820151816000015560208201518160010155604082015181600201556060820151816003015560808201518160040160006101000a81548160ff0219169083600281111561202457fe5b021790555060a0820151816005015560c08201518160060160006101000a81548173ffffffffffffffffffffffffffffffffffffffff021916908373ffffffffffffffffffffffffffffffffffffffff160217905550505050836060015183606001818151039150818152505083600001517fa7bec7790a90eefc51c752a274c61fa256e58e17fbfeb1340045117ada7f2f4460405160405180910390a283600001518587806001019850815181106120d957fe5b6020026020010181815250506001808111156120f157fe5b8e60018111156120fd57fe5b141561210c576001985061211c565b5b5b5b808060010191505061183c565b508386899a509a509a5050505050505050509250925092565b620186a0600460003373ffffffffffffffffffffffffffffffffffffffff1673ffffffffffffffffffffffffffffffffffffffff16815260200190815260200160002060008282540192505081905550565b8154818355818111156121b4576007028160070283600052602060002091820191016121b39190612217565b5b505050565b6040518060e0016040528060008152602001600081526020016000815260200160008152602001600060028111156121ed57fe5b815260200160008152602001600073ffffffffffffffffffffffffffffffffffffffff1681525090565b61229691905b80821115612292576000808201600090556001820160009055600282016000905560038201600090556004820160006101000a81549060ff021916905560058201600090556006820160006101000a81549073ffffffffffffffffffffffffffffffffffffffff02191690555060070161221d565b5090565b90565b6000813590506122a881612e91565b92915050565b6000813590506122bd81612ea8565b92915050565b600082601f8301126122d457600080fd5b81356122e76122e282612d05565b612cd8565b9150818183526020840193506020810190508385602084028201111561230c57600080fd5b60005b8381101561233c578161232288826124b8565b84526020840193506020830192505060018101905061230f565b5050505092915050565b600082601f83011261235757600080fd5b815161236a61236582612d05565b612cd8565b9150818183526020840193506020810190508385602084028201111561238f57600080fd5b60005b838110156123bf57816123a588826124cd565b845260208401935060208301925050600181019050612392565b5050505092915050565b6000815190506123d881612ebf565b92915050565b6000813590506123ed81612ed6565b92915050565b60008135905061240281612ee6565b92915050565b600060e0828403121561241a57600080fd5b61242460e0612cd8565b90506000612434848285016124b8565b6000830152506020612448848285016124b8565b602083015250604061245c848285016124b8565b6040830152506060612470848285016124b8565b6060830152506080612484848285016123de565b60808301525060a0612498848285016124b8565b60a08301525060c06124ac848285016122ae565b60c08301525092915050565b6000813590506124c781612ef6565b92915050565b6000815190506124dc81612ef6565b92915050565b6000602082840312156124f457600080fd5b600061250284828501612299565b91505092915050565b6000806040838503121561251e57600080fd5b600061252c85828601612299565b925050602061253d85828601612299565b9150509250929050565b60008060006060848603121561255c57600080fd5b600061256a86828701612299565b935050602061257b86828701612299565b925050604061258c868287016124b8565b9150509250925092565b600080604083850312156125a957600080fd5b60006125b785828601612299565b92505060206125c8858286016124b8565b9150509250929050565b600080604083850312156125e557600080fd5b600083013567ffffffffffffffff8111156125ff57600080fd5b61260b858286016122c3565b925050602083013567ffffffffffffffff81111561262857600080fd5b612634858286016122c3565b9150509250929050565b60008060006060848603121561265357600080fd5b600084015167ffffffffffffffff81111561266d57600080fd5b61267986828701612346565b935050602084015167ffffffffffffffff81111561269657600080fd5b6126a286828701612346565b92505060406126b3868287016123c9565b9150509250925092565b60008061010083850312156126d157600080fd5b60006126df858286016123f3565b92505060206126f085828601612408565b9150509250929050565b600080600080600060a0868803121561271257600080fd5b6000612720888289016123f3565b9550506020612731888289016124b8565b9450506040612742888289016124b8565b9350506060612753888289016123de565b9250506080612764888289016124b8565b9150509295509295909350565b60006020828403121561278357600080fd5b6000612791848285016124b8565b91505092915050565b60006127a68383612aa3565b60208301905092915050565b6127bb81612d94565b82525050565b6127ca81612d94565b82525050565b60006127db82612d3d565b6127e58185612d60565b93506127f083612d2d565b8060005b83811015612821578151612808888261279a565b975061281383612d53565b9250506001810190506127f4565b5085935050505092915050565b61283781612da6565b82525050565b61284681612e0f565b82525050565b61285581612e0f565b82525050565b61286481612e21565b82525050565b600061287582612d48565b61287f8185612d71565b935061288f818560208601612e33565b61289881612e66565b840191505092915050565b60006128b0602a83612d71565b91507f4d75737420626520617574686f72697a656420746f207370656e64207468617460008301527f206d756368206c6d616f000000000000000000000000000000000000000000006020830152604082019050919050565b6000612916602283612d71565b91507f4d757374206861766520656e6f7567682066756e647320746f207472616e736660008301527f65720000000000000000000000000000000000000000000000000000000000006020830152604082019050919050565b600061297c601483612d71565b91507f4d7573742070617920666f7220746865206269640000000000000000000000006000830152602082019050919050565b60006129bc602483612d71565b91507f4d757374206861766520656e6f75676820746f6b656e7320666f72207468697360008301527f2061736b000000000000000000000000000000000000000000000000000000006020830152604082019050919050565b60e082016000820151612a2b6000850182612aa3565b506020820151612a3e6020850182612aa3565b506040820151612a516040850182612aa3565b506060820151612a646060850182612aa3565b506080820151612a77608085018261283d565b5060a0820151612a8a60a0850182612aa3565b5060c0820151612a9d60c08501826127b2565b50505050565b612aac81612df8565b82525050565b612abb81612df8565b82525050565b612aca81612e02565b82525050565b60006040820190508181036000830152612aea81856127d0565b90508181036020830152612afe81846127d0565b90509392505050565b60006060820190508181036000830152612b2181866127d0565b90508181036020830152612b3581856127d0565b9050612b44604083018461282e565b949350505050565b6000602082019050612b61600083018461282e565b92915050565b600061010082019050612b7d600083018561285b565b612b8a6020830184612a15565b9392505050565b60006020820190508181036000830152612bab818461286a565b905092915050565b60006020820190508181036000830152612bcc816128a3565b9050919050565b60006020820190508181036000830152612bec81612909565b9050919050565b60006020820190508181036000830152612c0c8161296f565b9050919050565b60006020820190508181036000830152612c2c816129af565b9050919050565b6000602082019050612c486000830184612ab2565b92915050565b600060e082019050612c63600083018a612ab2565b612c706020830189612ab2565b612c7d6040830188612ab2565b612c8a6060830187612ab2565b612c97608083018661284c565b612ca460a0830185612ab2565b612cb160c08301846127c1565b98975050505050505050565b6000602082019050612cd26000830184612ac1565b92915050565b6000604051905081810181811067ffffffffffffffff82111715612cfb57600080fd5b8060405250919050565b600067ffffffffffffffff821115612d1c57600080fd5b602082029050602081019050919050565b6000819050602082019050919050565b600081519050919050565b600081519050919050565b6000602082019050919050565b600082825260208201905092915050565b600082825260208201905092915050565b6000612d8d82612dd8565b9050919050565b6000612d9f82612dd8565b9050919050565b60008115159050919050565b6000819050612dc082612e77565b919050565b6000819050612dd382612e84565b919050565b600073ffffffffffffffffffffffffffffffffffffffff82169050919050565b6000819050919050565b600060ff82169050919050565b6000612e1a82612db2565b9050919050565b6000612e2c82612dc5565b9050919050565b60005b83811015612e51578082015181840152602081019050612e36565b83811115612e60576000848401525b50505050565b6000601f19601f8301169050919050565b60038110612e8157fe5b50565b60028110612e8e57fe5b50565b612e9a81612d82565b8114612ea557600080fd5b50565b612eb181612d94565b8114612ebc57600080fd5b50565b612ec881612da6565b8114612ed357600080fd5b50565b60038110612ee357600080fd5b50565b60028110612ef357600080fd5b50565b612eff81612df8565b8114612f0a57600080fd5b5056fea365627a7a723158205a2c913e198fc6695b3a48c37fa37d0c660dd88902b37579aa09378bb3726be66c6578706572696d656e74616cf564736f6c63430005100040",
  "source": "pragma solidity ^0.5.16;\npragma experimental ABIEncoderV2;\n\ncontract InnoCoin {\n    // The coin instrumentation part\n\n    event Transfer(address indexed from, address indexed to, uint256 tokens);\n    event Approval(address indexed _owner, address indexed _spender, uint256 value);\n\n    string public name = \"InnoCoin\";\n    string public symbol = \"ICC\";\n    uint8 public decimals = 8;\n    uint256 public totalSupply = 1000000;\n\n    mapping (address => uint256) balances;\n    mapping (address => mapping(address => uint256)) allowances;\n\n    // TODO: remove befoere rearwfa\n    function tap() public {\n        balances[msg.sender] += 100000;\n    }\n\n    function balanceOf(address _owner) public view returns (uint256 balance) {\n        return balances[_owner];\n    }\n\n    function transfer(address _to, uint256 _value) public returns (bool success) {\n        require(balances[msg.sender] >= _value, \"Must have enough funds to transfer\");\n\n        balances[msg.sender] -= _value;\n        balances[_to] += _value;\n\n        emit Transfer(msg.sender, _to, _value);\n\n        return true;\n    }\n\n    function transferFrom(address _from, address _to, uint256 _value) public returns (bool success) {\n        require(_value < allowances[_from][msg.sender], \"Must be authorized to spend that much lmao\");\n\n        allowances[_from][msg.sender] -= 1;\n        balances[_from] -= _value;\n        balances[_to] += _value;\n\n        return true;\n    }\n\n    function approve(address _spender, uint256 _value) public returns (bool success) {\n        allowances[msg.sender][_spender] = _value;\n        emit Approval(msg.sender, _spender, _value);\n        return true;\n    }\n\n    function allowance(address _owner, address _spender) public view returns (uint256 remaining) {\n        return allowances[_owner][_spender];\n    }\n\n    // The DEX part\n\n    enum OrderSide { Bid, Ask }\n    enum OrderFlags { ImmediateOrCancel, TimeInForce, GoodTillCancel }\n\n    struct Order {\n        uint256 uid;\n\n        uint256 created_at;\n        uint256 price;\n        uint256 quantity;\n\n        OrderFlags flags;\n        uint256 good_till; // only if flags == TimeInForce, 0 otherwise\n\n        address payable owner;\n    }\n\n    uint256 next_order = 1;\n    Order[] public asks;\n    Order[] public bids;\n    Order[] public closed_asks;\n    Order[] public closed_bids;\n\n    event OrderClosed(uint256 indexed uid);\n\n    function limitOrder(OrderSide _side, uint256 _price, uint256 _quantity, OrderFlags _flags, uint256 _good_till) external payable returns (uint256 order_uid) {\n        if (_side == OrderSide.Ask) {\n            require(_quantity >= balances[msg.sender], \"Must have enough tokens for this ask\");\n            balances[msg.sender] -= _quantity;\n            balances[address(this)] += _quantity;\n        } else if (_side == OrderSide.Bid) {\n            require(_price * _quantity == msg.value, \"Must pay for the bid\");\n        }\n\n        Order memory order = Order({\n            uid: next_order++,\n            created_at: now,\n            price: _price,\n            quantity: _quantity,\n            flags: _flags,\n            // TODO: implement good till shit\n            good_till: _good_till,\n            owner: msg.sender\n        });\n\n        if (_side == OrderSide.Ask) {\n            asks.push(order);\n        } else if (_side == OrderSide.Bid) {\n            bids.push(order);\n        }\n        \n        (uint256[] memory remove_bids, uint256[] memory remove_asks, bool covered) = this.tryCover(_side, order);\n\n        this.filterAsksAndBids(remove_asks, remove_bids);\n\n        return next_order - 1;\n    }\n\n    function tryCover(OrderSide _side, Order memory order) public returns (uint256[] memory, uint256[] memory, bool) {\n        bool covered = false;\n        uint256 next_remove_bid = 0;\n        uint256[] memory remove_bids;\n        uint256 next_remove_ask = 0;\n        uint256[] memory remove_asks;\n\n        Order memory ask;\n        Order memory bid;\n        Order[] memory others;\n\n        if (_side == OrderSide.Ask) {\n            others = bids;\n        } else if (_side == OrderSide.Bid) {\n            others = asks;\n        }\n\n        for (uint256 i = 0; i < others.length; i++) {\n            if (_side == OrderSide.Ask) {\n                ask = order;\n                bid = others[i];\n            } else if (_side == OrderSide.Bid) {\n                bid = order;\n                ask = others[i];\n            }\n            if (ask.price >= bid.price) {\n                if (ask.quantity == bid.quantity) {\n                    balances[address(this)] -= bid.quantity;\n                    balances[bid.owner] += bid.quantity;\n                    ask.owner.transfer(bid.price * bid.quantity);\n\n                    closed_asks.push(ask);\n                    closed_bids.push(bid);\n\n                    emit OrderClosed(ask.uid);\n                    emit OrderClosed(bid.uid);\n\n                    covered = true;\n\n                    remove_asks[next_remove_ask++] = ask.uid;\n                    remove_bids[next_remove_bid++] = bid.uid;\n                    break;\n                } else if (ask.quantity > bid.quantity) {\n                    balances[address(this)] -= bid.quantity;\n                    balances[bid.owner] += bid.quantity;\n                    ask.owner.transfer(bid.price * bid.quantity);\n\n                    closed_bids.push(bid);\n\n                    ask.quantity -= bid.quantity;\n\n                    emit OrderClosed(bid.uid);\n\n                    remove_bids[next_remove_bid++] = bid.uid;\n\n                    if (_side == OrderSide.Bid) {\n                        covered = true;\n                        break;\n                    }\n                } else if (ask.quantity < bid.quantity) {\n                    balances[address(this)] -= ask.quantity;\n                    balances[bid.owner] += ask.quantity;\n                    ask.owner.transfer(bid.price * ask.quantity);\n\n                    closed_asks.push(ask);\n\n                    bid.quantity -= ask.quantity;\n\n                    emit OrderClosed(ask.uid);\n\n                    remove_asks[next_remove_ask++] = ask.uid;\n\n                    if (_side == OrderSide.Ask) {\n                        covered = true;\n                        break;\n                    }\n                }\n            }\n        }\n\n        return (remove_asks, remove_bids, covered);\n    }\n\n    function filterAsksAndBids(uint256[] memory remove_asks, uint256[] memory remove_bids) public {\n        for (uint256 i = 0; i < remove_asks.length; i++) {\n            uint256 uid_to_remove = remove_asks[i];\n            bool shit = false;\n            for (uint256 j = 0; j < asks.length; j++) {\n                if (asks[j].uid == uid_to_remove) {\n                    shit = true;\n                } else if (shit) {\n                    asks[j - 1] = asks[j];\n                }\n            }\n            asks.length--;\n        }\n        for (uint256 i = 0; i < remove_bids.length; i++) {\n            uint256 uid_to_remove = remove_bids[i];\n            bool shit = false;\n            for (uint256 j = 0; j < bids.length; j++) {\n                if (bids[j].uid == uid_to_remove) {\n                    shit = true;\n                } else if (shit) {\n                    bids[j - 1] = bids[j];\n                }\n            }\n            bids.length--;\n        }\n    }\n}\n",
  "sourcePath": "/Users/ionagamed/archive_innopolis/bs4s/SCD/inno-dex/contract/contracts/InnoCoin.sol",
  "compiler": {
    "name": "solc",
    "version": "0.5.16+commit.9c3226ce.Emscripten.clang"
  },
  "schemaVersion": "3.3.4",
  "updatedAt": "2021-04-19T19:48:09.482Z",
  "networkType": "ethereum",
  "devdoc": {
    "methods": {}
  },
  "userdoc": {
    "methods": {}
  }
}